:020000040800F2
:10000000600400209D01000827120008311100083B
:10001000251200084B0700086D15000800000000BD
:100020000000000000000000000000004B1200086B
:100030004D07000800000000491200084D1200089A
:10004000B7010008B7010008B7010008B7010008B0
:10005000B7010008B7010008B7010008B7010008A0
:10006000B7010008B7010008B7010008B701000890
:10007000B7010008B7010008B7010008B701000880
:10008000B7010008B7010008B7010008B701000870
:10009000B7010008B7010008B7010008B701000860
:1000A000B7010008B7010008B7010008B701000850
:1000B000B7010008B7010008B7010008B701000840
:1000C000B7010008B7010008B7010008B701000830
:1000D000B7010008B7010008B7010008B701000820
:1000E000B7010008B7010008B7010008B701000810
:1000F000B7010008B7010008B7010008B701000800
:10010000B7010008B7010008B7010008B7010008EF
:10011000B7010008B7010008B7010008B7010008DF
:10012000B7010008B7010008B7010008B7010008CF
:10013000B7010008B7010008B7010008B7010008BF
:10014000B7010008B7010008B7010008B7010008AF
:10015000B7010008B7010008B7010008B70100089F
:10016000B7010008B7010008B7010008B70100088F
:10017000B7010008B7010008B7010008000000003F
:10018000B7010008B7010008DFF80CD000F05CFAF6
:1001900000480047BD1F0008600400200648804753
:1001A00006480047FEE7FEE7FEE7FEE7FEE7FEE75C
:1001B000FEE7FEE7FEE7FEE7D5120008890100082A
:1001C0002DE9F05F0546002092469B46884606468C
:1001D000814640241BE0284641464746224600F01F
:1001E0006AF853465A46C01A914110D31146184630
:1001F000224600F051F82D1A67EB01084F462246BF
:100200000120002100F048F817EB00094E41201EA4
:10021000A4F10104DFDC484631462A464346BDE8E6
:10022000F09FD2B201E000F8012B491EFBD27047CB
:100230000022F6E710B513460A4604461946FFF7B2
:10024000F0FF204610BD00F0004230F000400AD020
:10025000C10D01F56071C0F3160042EA0151C208F8
:1002600040071143704700200146704730B50B46E8
:10027000014600202022012409E021FA02F59D42D6
:1002800005D303FA02F5491B04FA02F52844151EAA
:10029000A2F10102F1DC30BD202A04DB203A00FA91
:1002A00002F1002070479140C2F1200320FA03F3CD
:1002B000194390407047202A04DB203A21FA02F0CB
:1002C0000021704721FA02F3D040C2F12002914090
:1002D0000843194670472DE9FE4F804681EA030026
:1002E000C00F0C46009021F0004123F00045B8EB10
:1002F0000200A94105D24046214690461C460B46C5
:10030000024623F00040104347D0270DC7F30A00F0
:10031000C3F30A510290401A019040286BDAC3F3EC
:10032000130040F4801B0098924620B10023D2EBCA
:10033000030A63EB0B0B01985946C0F1400250468B
:10034000FFF7AAFF06460D4650465946019A00F0AF
:100350008DF910EB08006141002487EA115284EA0C
:10036000E7731A4340D0009A62B3019A012A4FEA18
:10037000075215DC001B61EB02014FF0004202EA5C
:100380000752CDE90042001C41F5801132462B4650
:1003900000F08DF903B0BDE8F08F40462146F9E743
:1003A000001B61EB0201001C41F5801300185B414A
:1003B0002018A2F5001747EB030140EAD570B619E3
:1003C0006D4111E06D084FEA360645EAC0754FEA07
:1003D0000752001B61EB0201001C41F58011490826
:1003E0004FEA30000019514132462B4603B0BDE8B8
:1003F000F04F00F04DB90098012240000023D0EBEF
:10040000020263EBE073009821464FEAE074B8EB18
:10041000000061EB0401E9E783F000435BE781F052
:10042000004158E72DE9FE4F81EA030404F000443F
:1004300021F0004100944FF0000B23F0004350EAFC
:1004400001045ED052EA03045BD0C3F30A54C1F343
:100450000A552C44A4F2F3340194A0FB0254C1F3D6
:10046000130141F48011C3F3130343F4801301FB20
:10047000024400FB034E840A970A44EA815447EA87
:100480008357A4FB076802958D0A05FB07854FEA91
:10049000932C04FB0C542705029D4FEA065847EAAB
:1004A0001637B5EB08056EEB070C870E920E47EA80
:1004B000811742EA8312A7FB0201B6EB0B0164EB42
:1004C00000042B0D43EA0C335E1844EB1C50DA4653
:1004D0005146E7FB0201C5F313044FEA0B3343EA2D
:1004E00014534FEA0432019C43EA0603A4F10C04BE
:1004F0000294009CCDE900B400F0D9F803B0BDE847
:10050000F08F00200146F9E72DE9F04D81EA030460
:1005100004F0004B21F0004514464FF0000A23F090
:10052000004150EA050220D054EA01021DD0C5F373
:100530000A570246C5F31303C1F31300C1F30A5669
:1005400040F4801543F48013A7EB0608101BD64631
:1005500008F2FD3873EB050002D308F1010801E051
:1005600092185B41B8F1000F03DA00200146BDE8A4
:10057000F08D00204FF48011064684460EE0171BD4
:1005800073EB050705D3121B63EB050306434CEA27
:10059000010C49084FEA300092185B4150EA01070C
:1005A000EDD152EA030012D082EA040083EA050189
:1005B000084305D0101BAB4106D20122002306E000
:1005C00000224FF0004302E06FF0010253101AEBDB
:1005D00006004CEB085110EB0A0041EB0B01BDE8A3
:1005E000F04D00F055B8C1F30A52C1F3130140F2C7
:1005F000FF3341F480119A4202DA0020014670472D
:1006000040F233439A42A2F2334202DC5242FFF7F5
:1006100052BEFFF741BE000030B5041E71F1000468
:1006200004DB4FF00044404264EB0101141E73F1FF
:10063000000405DB1C464FF00043524263EB040309
:10064000994208BF904230BD064C074D06E0E06875
:1006500040F0010394E8070098471034AC42F6D309
:10066000FFF796FD98200008B8200008202A06DB36
:10067000CB17203A41FA02F043EAE07306E041FA70
:1006800002F3D040C2F1200291400843194670475E
:1006900010B5141E73F1000408DA401C41F100018A
:1006A00092185B411A4301D120F0010010BD2DE9E1
:1006B000F04D92469B4611B1B1FA81F202E0B0FAD8
:1006C00080F220329046FFF7E7FD04460F4640EAED
:1006D0000A0041EA0B0153465A46084313D011461B
:1006E00053EA010019D0C8F140025046FFF7E3FD7C
:1006F00005460E46504659464246FFF7CDFD084393
:1007000005D0012004E020463946BDE8F08D0020E8
:10071000054346EAE0762C4337430A986305E40A2A
:10072000A0EB08000022FD0A44EA47540A3002D533
:1007300000200146E9E7010510196941DDE9084596
:1007400000196941BDE8F04DA2E7FEE770470000DF
:1007500070B5044600F0ECF80546601C02D0044871
:100760000078044400F0E4F8401BA042FAD370BDC6
:10077000080000202DE9F84FDFF87CB100224FF08F
:1007800001084FF0030A4FF00F090BF1040E00BFF0
:100790000B6808FA02F42340A3426ED14D68022D83
:1007A00001D0122D0ED1D50800EB850CDCF82050BD
:1007B0005607F70E09FA07F6B5430E69BE402E43F9
:1007C000CCF82060066855000F790AFA05FC07F09E
:1007D000030726EA0C06AF40374307604E68012E38
:1007E00005D0022E03D0112E01D0122E0ED1866814
:1007F000CF6826EA0C06AF40374387604668A643B9
:100800000C79C4F30014944034434460C6688C6887
:1008100026EA0C06AC403443C4604C68E40065D55D
:10082000364C256845F480452560246822F0030590
:1008300004F480440094324C2E19D6F808489507E9
:100840002F0F09FA07F5AC432E4DA84201D1002520
:1008500024E02D4DA84201D101251FE02B4DA842D7
:1008600001D102251AE02A4DA84201D1032515E045
:10087000284DA84202D1042510E037E0264DA842B9
:1008800001D105250AE0254DA84201D1062505E044
:10089000234DA84201D1072500E00825BD4025438E
:1008A000C6F80858DBF800405D464E689C43F603E6
:1008B00000D51C432C60DEF8004075464E689C4312
:1008C000B60300D51C432C600B4D08352C684E68D0
:1008D0009C43F60200D51C432C60074D0C352C6858
:1008E0004E689C43B60200D51C432C60521C102A53
:1008F000FFF44EAFBDE8F88F003C014044380240A1
:1009000000300140000002400004024000080240A4
:10091000000C024000100240001402400018024087
:10092000001C02400AB1816170470904FBE7000026
:100930000148806870470000080000200248816874
:100940000278114481607047080000200B4810B500
:10095000016841F400710160016841F48061016047
:10096000016841F480710160032000F061F800200B
:1009700000F006F800F024F8002010BD003C024012
:1009800070B50D4D04464FF47A712878B1FBF0F044
:100990000A490968B1FBF0F000F0B2FA48B9102C2E
:1009A00007D200222146501E00F022F800206C6081
:1009B00070BD012070BD0000080000201400002060
:1009C0000A4808B5016841F480410160006800F4FC
:1009D000804000900548001F016841F0805101608F
:1009E000006800F08050009008BD000044380240CC
:1009F000F0B40E4B1B680C46C3F30223C3F107058A
:100A0000042D00D90425191D072901D2002300E077
:100A1000DB1E012606FA05F1491E214099409E4041
:100A2000761E16403143F0BC00F0FEBB0CED00E03A
:100A3000064900F0070208684FF6FF03184040EA35
:100A40000220034A10430860704700000CED00E0EC
:100A50000000FA052DE9F0470E46050065D0DFF8E5
:100A60001481D8F80000F7B200F00F00B04207D2AE
:100A700088F80070D8F8000000F00F00B04254D1A0
:100A800028683D4C810712D5400703D5206840F403
:100A9000E05020602878000703D5206840F46040CB
:100AA00020602068A96820F0F000084320602878C2
:100AB000C0072DD0304968680839012812D00228B3
:100AC00013D0032811D00968890700292DDA21687D
:100AD00021F0030101432160FFF72AFF814641F223
:100AE000883A0EE009688903EFE709688901ECE7B5
:100AF000FFF71EFFA0EB0901514502D90320BDE815
:100B0000F0872068696800F00C00B0EB810FEFD12E
:100B1000D8F80010404601F00F01B14207D9077024
:100B2000006800F00F00B04201D00120E7E728780C
:100B3000400705D52068E96820F4E05008432060AC
:100B40002878000706D52068296920F4604040EA2B
:100B5000C100206000F016F82168084AC1F30311B3
:100B6000515CC840064908600020FFF709FF0020DB
:100B7000C5E70000003C0240083802408820000819
:100B800014000020154810B5006810F00C0214483D
:100B900013D04110042A0FD0082A0ED10F4C241F65
:100BA0002268236802F03F025B0207D52068C0F389
:100BB0008810A0FB010106E0084610BD2168C1F3C2
:100BC0008811A1FB00010023FFF7FAFA2168C1F3A5
:100BD0000141491C4900B0FBF1F010BD083802404A
:100BE0000024F4002DE9F84F050076D02878DFF8CE
:100BF000F8B2BE4CC00749D0DBF800105846C1F32C
:100C00008101012908D00068C0F3810002280AD1BF
:100C1000201D0068400206D52068800336D568682C
:100C20000028E2D032E06868B0F5803F10D0B0F51F
:100C3000A02F206810D020F480302060206820F49D
:100C4000802020606868A0B1FFF772FE06460CE0C5
:100C5000206840F48030F4E740F480202060F7E71B
:100C6000FFF766FE801B642873D820688003F7D5E1
:100C70000CE0FFF75DFE064605E000BFFFF758FEFB
:100C8000801B6428F0D820688003F7D42878DFF828
:100C9000608280074FF000093ED5DBF8001058460F
:100CA00011F00C0F09D00068C0F3810002280BD1AD
:100CB0008D48001F0068400206D42068800715D5C3
:100CC000E868012809D111E0E868B8B10120C8F846
:100CD0000000FFF72DFE064605E002E1FFF728FEC3
:100CE000801B0228C0D820688007F7D520682969B2
:100CF00020F0F80040EAC10020600DE0C8F8009044
:100D0000FFF716FE064604E0FFF712FE801B0228DE
:100D10001FD820688007F7D42878000722D5724EA4
:100D2000744869696C3671B101210160FFF700FEFA
:100D3000074604E0FFF7FCFDC01B022809D8306815
:100D40008007F7D50EE0C0F80090FFF7F1FD0746E9
:100D500005E083E0FFF7ECFDC01B02287ED8306879
:100D60008007F7D42878400768D5DFF87CA10027F2
:100D70000AF1380ADAF80000C0000BD4DAF80010E3
:100D800041F08051CAF80010DAF80000012700F0A5
:100D900080500090584E3068C00510D4306840F440
:100DA00080703060FFF7C4FD009005E0FFF7C0FDE4
:100DB0000099401A022851D83068C005F6D54A4E2D
:100DC000A868683601280FD00528306810D020F0B8
:100DD00001003060306820F004003060A868B8B1CD
:100DE000FFF7A6FD00900FE0306840F00100F4E747
:100DF00040F004003060F7E7FFF79AFD0099411AD0
:100E000041F28830814264D830688007F4D50EE022
:100E1000FFF78EFD009007E0FFF78AFD0099411A69
:100E200041F28830814254D830688007F4D42FB121
:100E3000DAF8001021F08051CAF80010A869C0B398
:100E4000DBF80010C1F3810102294AD0022848468C
:100E500007D0C8F86000FFF76BFD00E039E00546F9
:100E60003AE04746C8F86000FFF762FD064604E036
:100E7000FFF75EFD801B02282BD820688001F7D485
:100E8000D5E907010843A96A1C4A490802EB014158
:100E90006A6A41EA8211084395F82C1040EA016120
:100EA0001148001F016001203866FFF741FD05462B
:100EB00005E014E0FFF73CFD401B022809D820683C
:100EC0008001F7D50BE000BFFFF732FD401B022881
:100ED00002D90320BDE8F88F20688001F4D40020F7
:100EE000F8E70120F6E70000083802400038024029
:100EF00000004742800E4742007000400000FFFFA4
:100F000010B5401EB0F1807F01D3012010BD4FF01D
:100F1000E02460610F21601700F086F90020A061D5
:100F200007202061002010BD30B590F83820012A3C
:100F300020D0012280F83820022380F8393003685D
:100F40005C6824F070045C6003685C680D682C4386
:100F50005C6003689C6824F080049C6003689C6863
:100F600049680C439C6080F83920002180F83810D3
:100F7000084630BD022030BD10B586B004461421AD
:100F80006846FFF755F90D492068884214D10C488E
:100F90000021026842F001020260006800F00100D6
:100FA0000590402000900220CDE90101CDE9031019
:100FB00069460448FFF7DEFB06B010BD00040040A0
:100FC000303802400000024070B5044690F8380006
:100FD0000D4601280DD0012684F83860022084F8DF
:100FE000390042B1042A18D0082A2AD00C2A4DD13F
:100FF00039E0022070BD206800F002FA20688169A3
:1010000041F0080181612068816921F0040181615A
:10101000206881692A69114311E0206800F01CFAF8
:101020002068816941F4006181612068816921F44F
:1010300080618161206881692A6941EA02218161B8
:1010400024E0206800F03AFA2068C16941F0080104
:10105000C1612068C16921F00401C1612068C169D2
:101060002A69114311E0206800F058FA2068C1692C
:1010700041F40061C1612068C16921F48061C161EE
:101080002068C1692A6941EA0221C16184F8396096
:10109000002084F8380070BD10B5040003D094F827
:1010A000390010B107E0012010BD002084F838009D
:1010B000204600F00DF8022084F83900211D206838
:1010C00000F032F9012084F83900002010BD000042
:1010D00008B500680649884208D10648016841F011
:1010E00002010160006800F00200009008BD0000ED
:1010F000000400404038024010B504460068012258
:1011000000F072F908492068884202D007498842F5
:1011100003D1416C41F4004141642068016841F011
:1011200001010160002010BD0000014000040140E9
:10113000FEE700002DE9F04186B014216846FFF774
:1011400077F81E480024016841F010010160016831
:1011500001F010010591016841F080010160016812
:1011600001F080010591016841F001010160006812
:10117000134F00F00100059000223F213846FFF791
:10118000D1FBDFF8408000223F214046FFF7CAFB39
:101190003F2501260095CDE9016469463846039450
:1011A000FFF7E8FA0095CDE90164694640460394EB
:1011B000FFF7E0FA06B0BDE8F081000030380240E9
:1011C000001002400000024010B58AB000240794CD
:1011D0001C2168460894FFF72BF811480F4901605D
:1011E0001521C0E901144FF4C871C0E90314FFF7D9
:1011F00053FF079407A90A480894FFF795FE60205B
:10120000CDE9000402940022694605480494FFF7E2
:10121000DBFE0348FFF7B0FE0AB010BD000400403B
:1012200018000020FEE770470907090E002806DABB
:1012300000F00F0000F1E02080F8141D704700F16D
:10124000E02080F80014704770477047FFF776BBC6
:1012500030B593B030216846FEF7EAFF14210CA8A0
:10126000FEF7E6FF19480025016841F08051016052
:10127000006800F0805011901548016841F48041E9
:1012800001600068022400F4804011900120009069
:10129000000401908001CDE9064008AA0420A8219D
:1012A00082E813000B906846FFF79CFC0CA90F2006
:1012B00081E831004FF4A0500F90E002109005211A
:1012C0000CA8FFF7C7FB13B030BD00004038024048
:1012D000007000401048016841F4700101600F483F
:1012E000016841F0010101600C4A002108321160DF
:1012F00002680B4B1A400260031D0A4A1A6002681A
:1013000022F48022026005480C3001600249580630
:10131000803908607047000088ED00E00038024026
:10132000FFFFF6FE10300024F0B50268234B244D79
:10133000244E254F254C4FF0804C984209D06045F3
:1013400007D0A84205D0B04203D0B84201D0A04295
:1013500004D122F0700E4A6842EA0E0298421BD075
:10136000604519D0A84217D0B04215D0B84213D06A
:10137000A04211D0164DA8420ED0164DA8420BD057
:10138000154DA84208D0154DA84205D0144DA842CD
:1013900002D0144DA84203D122F44075CA682A43F2
:1013A00002608A68C2620A688262984201D0A042E2
:1013B00001D10969016301214161F0BD00000140D3
:1013C0000004004000080040000C00400004014000
:1013D0000040014000440140004801400018004026
:1013E000001C00400020004010B50123046A8B401F
:1013F0009C430462036A8A401343036210BD0000E9
:1014000030B5026A22F001020262026A436884690E
:101410000D6824F07304254322F002048A682243F5
:101420000B4CA04202D00B4CA0420BD122F008047E
:10143000CA6823F4407322434C6922F004021C431F
:101440008B6923434360856149684163026230BD13
:10145000000001400004014030B5026A22F0100291
:101460000262026A436884690D6824F4E64444EA2F
:1014700005248D6822F0200242EA05120D4DA84293
:1014800002D00D4DA8420ED1CD6822F0800242EA72
:1014900005124D6923F4406343EA85038D6922F008
:1014A000400243EA850343608461496881630262C4
:1014B00030BD0000000001400004014030B5026A68
:1014C00022F480720262036A4268C46923F40073E2
:1014D00024F073050C682C438D6843EA05230D4DF9
:1014E000A84202D00C4DA8420ED1CD6823F400636F
:1014F00043EA05234D6922F4405242EA05128D6900
:1015000023F4806342EA05124260C4614968C16302
:10151000036230BD000001400004014030B5026AA2
:1015200022F480520262046A4268C3690D6823F49F
:10153000E64343EA05238D6824F4005444EA053465
:10154000084DA84202D0084DA84204D14D6922F4AA
:10155000804242EA85124260C361496801640462C4
:1015600030BD00000000014000040140FEE7000023
:101570000FB4084B10B504A902AA039800F0DEF8D6
:10158000044602A9002000F070FC204610BC5DF863
:1015900014FB00006B1E000802E008C8121F08C1FF
:1015A000002AFAD170477047002001E001C1121FE4
:1015B000002AFBD1704700002DE9FF5F82B00021B7
:1015C000DDE90430020DDDF840B0034318D044F6E5
:1015D0001050A2F2FF3242431514119801281FD077
:1015E000A5EB0B00401C5FEA000A4FF000064E4FCF
:1015F000DFF83891B046504615D5CAF1000413E023
:10160000119801244AA3012801D16FEA0B01029825
:10161000119AC0E90031C0E9024206B0BDE8F09F6E
:10162000CBF10000DFE704460021404A491842EBB5
:101630000450CDE9001012E0E00707D032463B46E7
:1016400040464946FEF7EEFE8046894632463B4616
:1016500010461946FEF7E6FE06460F466410002CBB
:10166000EAD1DDE90401DDE90023BAF1000F06DA71
:10167000FEF7D8FE42464B46FEF7D4FE05E0FEF7E5
:1016800043FF42464B46FEF73FFF04460E4600220C
:10169000284BFEF7C1FF03D84FF0FF30014607E0AB
:1016A0000022254B20463146FEF715FEFEF79BFF34
:1016B000102409E0002C0ADB0A220023FEF780FD3B
:1016C000039B30321A55641E50EA0102F2D1641CA9
:1016D000039AC4F111031444119A012A03D0012280
:1016E00008430DD10AE0084304D000204FF0110B4D
:1016F000119072E7A3EB0B056D1E0DE05B4504DD59
:101700004FF0000205F1010504E003DA4FF000029A
:10171000A5F10105002AECD002981199C0E9023127
:10172000C0E9004579E70000000014400000F03FE8
:10173000300000000000F0430000E03F2DE9FF4FC3
:1017400095B09B468946064600250FE2252877D1AD
:1017500000242746F84A0121059400E0044316F8C6
:10176000013F203B01FA03F01042F7D130782A28DC
:1017700011D06FF02F033078A0F13002092A16D86B
:10178000059A44F0020402EB820203EB4202104489
:10179000761C0590EFE759F8042B0592002A03DA2E
:1017A000504244F40054059044F00204761C307812
:1017B0002E2816D116F8010F44F004042A280DD063
:1017C0006FF02F023078A0F13003092B09D807EB16
:1017D000870302EB4303C718761CF3E759F8047B31
:1017E000761C30786C280FD006DC4C2817D068287F
:1017F0000DD06A2814D104E0742810D07A280FD1B3
:101800000DE044F400140AE044F4801401E044F4D0
:1018100040147278824202D104F58014761C761C42
:10182000307866280BD013DC582877D009DC0028E4
:1018300075D04528F6D04628F4D047281AD19DE126
:1018400018E0632835D0642879D0652812D195E155
:10185000702873D008DC6728F1D069286FD06E2813
:101860000DD06F2806D1B5E073282CD0752875D01F
:10187000782874D05A46179990476D1C75E1C4F3C7
:101880000250022809D003280DD0D9F800100428EE
:101890000DD00D6009F1040967E1D9F80010EA17CD
:1018A000C1E90052F6E7D9F800100D80F2E70D709B
:1018B000F0E719F8041B8DF8001000208DF80100E6
:1018C000EA46012003E059F804AB4FF0FF3061070E
:1018D0004FF0000102D40DE008F101018846B94241
:1018E0000FDA8045F8DB1AF808100029F4D108E077
:1018F00008F1010188468142FADB1AF80810002934
:10190000F6D105985B46A0EB080721463846179AA2
:1019100000F094FA284400EB080507E04DE029E1C7
:101920000DE01AF8010B5A4617999047B8F10108D3
:10193000F7D25B4621463846179A13E142E00A2265
:101940000092C4F302524FF0000A022A08D059F85C
:1019500004CB032A4FEAEC710AD00DE029E02AE01B
:1019600009F1070121F00702F2E802C1914609E0FE
:101970000FFA8CFC4FEAEC71042A03D14FFA8CFC6D
:101980004FEAEC71002907DA0A460021DCF1000C6D
:1019900061EB02012D2202E0220504D52B228DF8F5
:1019A0000420012203E0E20701D02022F7E790465D
:1019B00059E00A2102E010220DE010214FF0000A48
:1019C00000910BE010224FF0000A44F004040827B5
:1019D000009203E008224FF0000A0092C4F3025282
:1019E000022A05D059F804CB0021032A08D009E0C7
:1019F00009F1070121F00702F2E802C1914605E072
:101A00001FFA8CFC042A01D10CF0FF0C4FF00008E7
:101A1000220728D5702806D0009B83F0100353EAD4
:101A20000A0305D00EE040228DF80420012208E0D0
:101A30005CEA010206D030228DF804208DF8050002
:101A400002229046009B83F0080353EA0A030AD15E
:101A50005CEA010201D1620705D530228DF804202D
:101A60004FF001087F1E582804D034A003900EA820
:101A700002900DE036A0F9E753466046009AFEF763
:101A80009FFB84460398825C0298401E029002707D
:101A90005CEA0100F0D1029806A9081A00F1200AB8
:101AA000600702D524F4803400E00127574502DDA9
:101AB000A7EB0A0000E0002000EB0A010090059867
:101AC0004144401A0590E00306D45B462146179A2C
:101AD000059800F0B3F90544002706E001A85A462E
:101AE000C05D179990476D1C7F1C4745F6DBE003EE
:101AF0000CD55B462146179A059800F09FF90544DE
:101B000004E030205A46179990476D1C0099481EF2
:101B100000900029F5DC08E0029802995A46007806
:101B2000491C0291179990476D1CBAF10001AAF166
:101B3000010AF1DC65E1000009280100303132338F
:101B400034353637383961626364656600000000F9
:101B500030313233343536373839414243444546E3
:101B60000000000000F058F90544761C3078002889
:101B70007FF4ECAD19B02846BDE8F08F620700D4C1
:101B8000062709F1070222F0070CFCE80223E146D0
:101B900003F000485FEA080C02D00FF2702C0DE051
:101BA0005FEA045C02D50FF2682C07E05FEAC47CB0
:101BB00002D00FF2602C01E0AFF2700C4FF0FF3852
:101BC00023F00043CDF850C065280CD006DC452832
:101BD00009D046281DD047283DD13DE0662818D0C1
:101BE00067287ED138E00021112F01DB112000E0B1
:101BF000781CCDE9000106A90EA8FFF7DDFCDDE9A0
:101C00000F010E9A03910021009207F1010A04913D
:101C10004DE04FF000400097CDE9011006A90EA855
:101C2000FFF7CAFCDDE90F0203920E9B1199002217
:101C3000DDF80CA00093049211B9791C00EB010AA5
:101C4000B7EB0A0004D4C0F1FF3007F1010A049099
:101C5000AAEB0700019044E0012F00DA01270021E0
:101C6000112F01DD112000E03846CDE9000106A961
:101C70000EA8FFF7A1FCDDE90F010E9A03910021E8
:101C800004910092BA4621070CD40399514500DA19
:101C90008A46BAF1010F05DD009AAAF10101515CF3
:101CA000302908D0B84202DA10F1040F06DA012117
:101CB000CDE9011015E0AAF10101E9E7002805DCF2
:101CC000049901440491AAEB000102E0411C514532
:101CD00000DD8A460499401A401C01904FF00040F4
:101CE0000290200704D40198504501DBCDF8048010
:101CF00000208DF84F0002980DF14F07B0F1004F12
:101D000025D02B200E9002984FF0020800280CDA04
:101D1000404202902D200E9007E00A210298FEF723
:101D2000A5FA3031029007F8011DB8F10001A8F1C1
:101D30000108F2DC02980028EFD1791E0E98087095
:101D4000307800F0200040F0450007F8020D12A89E
:101D5000C01B00F107081498007800B1012000EBC7
:101D60000A01019801EBE07105984144401A401EB8
:101D70000590E00306D45B462146179A059800F0CB
:101D80005DF805441498007818B15A4617999047A1
:101D90006D1CE00324D55B462146179A059800F098
:101DA0004DF805441CE00498002807DBDDE9030139
:101DB000884203DD0098405C179901E017993020B4
:101DC0005A469047049805F10105401C049001987B
:101DD000401E019004D12E205A46179990476D1C41
:101DE000BAF10001AAF1010ADDDC05E017F8010BE8
:101DF0005A46179990476D1CB8F10001A8F10108E7
:101E0000F4DC5B462146179A0598ABE62D000000EE
:101E10002B000000200000002DE9F04104460025C1
:101E20001E461746880404D405E039462020B047F2
:101E30006D1C641EF9D52846BDE8F0812DE9F041FE
:101E4000044600251E469046C80301D5302700E011
:101E50002027880404D505E041463846B0476D1C6C
:101E6000641EF9D52846BDE8F0810A68531C0B6052
:101E70001070704710B52821002000F00FF80C21D9
:101E8000002000F00BF80621002000F007F80121E7
:101E9000BDE81040002000F001B8000070B5064613
:101EA0000C460220FEF754FC334D0EB1012200E037
:101EB000002201212846FEF735FD200601D501222A
:101EC00000E0002220212846FEF72CFD600601D507
:101ED000012200E0002210212846FEF723FDA00683
:101EE00001D5012200E0002208212846FEF71AFD54
:101EF000E00601D5012200E0002204212846FEF779
:101F000011FD012202212846FEF70CFD00220221CC
:101F10002846FEF707FD200701D5012200E0002238
:101F200020212846FEF7FEFC600701D5012200E0D3
:101F3000002210212846FEF7F5FCA00701D501225A
:101F400000E0002208212846FEF7ECFCE00701D063
:101F5000012200E0002204212846FEF7E3FC0122D2
:101F600002212846FEF7DEFC2846BDE8704000222C
:101F70000221FEF7D7BC00000000024010B5144655
:101F800030B1012806D0022806D0032811D105E07F
:101F9000803104E0C03102E0943100E0D431C9B2B4
:101FA0000020FFF77BFF04E0C1B20120FFF776FFBE
:101FB000641C20780028F7D110BD0000FEF7C6FC95
:101FC000FFF746F9FFF7B6F8FFF7FEF800211948CA
:101FD000FFF792F81749C82009684863FFF74AFFDE
:101FE000002115A20846FFF7C9FF18A20021012011
:101FF000FFF7C4FF1B4C6068FEF725F941EC100B9E
:102000000C4853EC102B18A13C30FFF7B1FA094AE9
:1020100000213C320220FFF7B1FF064816A13C30F8
:102020002268FFF7A5FA034A00213C320320FFF79C
:10203000A5FFFEE7180000204E677579656E2056F3
:1020400075204E677579656E000000004261636817
:10205000206B686F6120756E69766572736974793B
:1020600000000000000000204865696768743A209D
:10207000252E3266206D00005765696768743A2026
:102080002564206B670000000000000000000000D5
:102090000102030406070809B82000080000002018
:1020A0001800000098150008D02000081800002033
:1020B00048040000A815000832000000AE47E13FC8
:1020C0000100000010000000000000000024F400E7
:040000050800018965
:00000001FF
